{
  "_format": "hh-sol-artifact-1",
  "contractName": "Auction",
  "sourceName": "contracts/Auction.sol",
  "abi": [
    {
      "inputs": [
        {
          "internalType": "uint256",
          "name": "_biddingTime",
          "type": "uint256"
        }
      ],
      "stateMutability": "nonpayable",
      "type": "constructor"
    },
    {
      "anonymous": false,
      "inputs": [
        {
          "indexed": true,
          "internalType": "address",
          "name": "winner",
          "type": "address"
        },
        {
          "indexed": false,
          "internalType": "uint256",
          "name": "amount",
          "type": "uint256"
        }
      ],
      "name": "AuctionEnded",
      "type": "event"
    },
    {
      "anonymous": false,
      "inputs": [
        {
          "indexed": true,
          "internalType": "address",
          "name": "bidder",
          "type": "address"
        },
        {
          "indexed": false,
          "internalType": "uint256",
          "name": "amount",
          "type": "uint256"
        }
      ],
      "name": "BidPlaced",
      "type": "event"
    },
    {
      "inputs": [],
      "name": "auctionEndTime",
      "outputs": [
        {
          "internalType": "uint256",
          "name": "",
          "type": "uint256"
        }
      ],
      "stateMutability": "view",
      "type": "function"
    },
    {
      "inputs": [],
      "name": "auctioneer",
      "outputs": [
        {
          "internalType": "address",
          "name": "",
          "type": "address"
        }
      ],
      "stateMutability": "view",
      "type": "function"
    },
    {
      "inputs": [
        {
          "internalType": "address",
          "name": "",
          "type": "address"
        }
      ],
      "name": "bidsByBidder",
      "outputs": [
        {
          "internalType": "address",
          "name": "bidder",
          "type": "address"
        },
        {
          "internalType": "uint256",
          "name": "amount",
          "type": "uint256"
        }
      ],
      "stateMutability": "view",
      "type": "function"
    },
    {
      "inputs": [],
      "name": "endAuction",
      "outputs": [],
      "stateMutability": "nonpayable",
      "type": "function"
    },
    {
      "inputs": [],
      "name": "ended",
      "outputs": [
        {
          "internalType": "bool",
          "name": "",
          "type": "bool"
        }
      ],
      "stateMutability": "view",
      "type": "function"
    },
    {
      "inputs": [
        {
          "internalType": "address",
          "name": "",
          "type": "address"
        }
      ],
      "name": "fundsByBidder",
      "outputs": [
        {
          "internalType": "uint256",
          "name": "",
          "type": "uint256"
        }
      ],
      "stateMutability": "view",
      "type": "function"
    },
    {
      "inputs": [],
      "name": "highestBid",
      "outputs": [
        {
          "internalType": "uint256",
          "name": "",
          "type": "uint256"
        }
      ],
      "stateMutability": "view",
      "type": "function"
    },
    {
      "inputs": [],
      "name": "highestBidder",
      "outputs": [
        {
          "internalType": "address",
          "name": "",
          "type": "address"
        }
      ],
      "stateMutability": "view",
      "type": "function"
    },
    {
      "inputs": [],
      "name": "placeBid",
      "outputs": [],
      "stateMutability": "payable",
      "type": "function"
    },
    {
      "inputs": [],
      "name": "withdraw",
      "outputs": [],
      "stateMutability": "nonpayable",
      "type": "function"
    }
  ],
  "bytecode": "0x60806040523480156200001157600080fd5b5060405162000f0538038062000f058339818101604052810190620000379190620000a9565b336000806101000a81548173ffffffffffffffffffffffffffffffffffffffff021916908373ffffffffffffffffffffffffffffffffffffffff1602179055508042620000859190620000d5565b6001819055505062000185565b600081519050620000a3816200016b565b92915050565b600060208284031215620000bc57600080fd5b6000620000cc8482850162000092565b91505092915050565b6000620000e28262000132565b9150620000ef8362000132565b9250827fffffffffffffffffffffffffffffffffffffffffffffffffffffffffffffffff038211156200012757620001266200013c565b5b828201905092915050565b6000819050919050565b7f4e487b7100000000000000000000000000000000000000000000000000000000600052601160045260246000fd5b620001768162000132565b81146200018257600080fd5b50565b610d7080620001956000396000f3fe6080604052600436106100915760003560e01c806391f901571161005957806391f901571461016c578063ce10cf8014610197578063d57bde79146101d4578063ecfc7ecc146101ff578063fe67a54b1461020957610091565b806312fa6feb146100965780631a8d5cd5146100c15780633ccfd60b146100ff5780634b449cba146101165780635ec2c7bf14610141575b600080fd5b3480156100a257600080fd5b506100ab610220565b6040516100b89190610b4f565b60405180910390f35b3480156100cd57600080fd5b506100e860048036038101906100e391906108e9565b610233565b6040516100f6929190610b26565b60405180910390f35b34801561010b57600080fd5b50610114610277565b005b34801561012257600080fd5b5061012b61038d565b6040516101389190610c2a565b60405180910390f35b34801561014d57600080fd5b50610156610393565b6040516101639190610b0b565b60405180910390f35b34801561017857600080fd5b506101816103b7565b60405161018e9190610b0b565b60405180910390f35b3480156101a357600080fd5b506101be60048036038101906101b991906108e9565b6103dd565b6040516101cb9190610c2a565b60405180910390f35b3480156101e057600080fd5b506101e96103f5565b6040516101f69190610c2a565b60405180910390f35b6102076103fb565b005b34801561021557600080fd5b5061021e61073d565b005b600260009054906101000a900460ff1681565b60056020528060005260406000206000915090508060000160009054906101000a900473ffffffffffffffffffffffffffffffffffffffff16908060010154905082565b6000600460003373ffffffffffffffffffffffffffffffffffffffff1673ffffffffffffffffffffffffffffffffffffffff168152602001908152602001600020549050600081116102fe576040517f08c379a00000000000000000000000000000000000000000000000000000000081526004016102f590610bea565b60405180910390fd5b6000600460003373ffffffffffffffffffffffffffffffffffffffff1673ffffffffffffffffffffffffffffffffffffffff168152602001908152602001600020819055503373ffffffffffffffffffffffffffffffffffffffff166108fc829081150290604051600060405180830381858888f19350505050158015610389573d6000803e3d6000fd5b5050565b60015481565b60008054906101000a900473ffffffffffffffffffffffffffffffffffffffff1681565b600260019054906101000a900473ffffffffffffffffffffffffffffffffffffffff1681565b60046020528060005260406000206000915090505481565b60035481565b600260009054906101000a900460ff161561044b576040517f08c379a000000000000000000000000000000000000000000000000000000000815260040161044290610baa565b60405180910390fd5b600154421061048f576040517f08c379a000000000000000000000000000000000000000000000000000000000815260040161048690610c0a565b60405180910390fd5b600034116104d2576040517f08c379a00000000000000000000000000000000000000000000000000000000081526004016104c990610b8a565b60405180910390fd5b6003543411610516576040517f08c379a000000000000000000000000000000000000000000000000000000000815260040161050d90610b6a565b60405180910390fd5b600073ffffffffffffffffffffffffffffffffffffffff16600260019054906101000a900473ffffffffffffffffffffffffffffffffffffffff1673ffffffffffffffffffffffffffffffffffffffff16146105e75760035460046000600260019054906101000a900473ffffffffffffffffffffffffffffffffffffffff1673ffffffffffffffffffffffffffffffffffffffff1673ffffffffffffffffffffffffffffffffffffffff16815260200190815260200160002060008282546105df9190610c56565b925050819055505b33600260016101000a81548173ffffffffffffffffffffffffffffffffffffffff021916908373ffffffffffffffffffffffffffffffffffffffff1602179055503460038190555060405180604001604052803373ffffffffffffffffffffffffffffffffffffffff16815260200134815250600560003373ffffffffffffffffffffffffffffffffffffffff1673ffffffffffffffffffffffffffffffffffffffff16815260200190815260200160002060008201518160000160006101000a81548173ffffffffffffffffffffffffffffffffffffffff021916908373ffffffffffffffffffffffffffffffffffffffff160217905550602082015181600101559050503373ffffffffffffffffffffffffffffffffffffffff167f3fabff0a9c3ecd6814702e247fa9733e5d0aa69e3a38590f92cb18f623a2254d346040516107339190610c2a565b60405180910390a2565b600260009054906101000a900460ff1661078c576040517f08c379a000000000000000000000000000000000000000000000000000000000815260040161078390610bca565b60405180910390fd5b600260009054906101000a900460ff16156107dc576040517f08c379a00000000000000000000000000000000000000000000000000000000081526004016107d390610baa565b60405180910390fd5b6001600260006101000a81548160ff021916908315150217905550600260019054906101000a900473ffffffffffffffffffffffffffffffffffffffff1673ffffffffffffffffffffffffffffffffffffffff167fdaec4582d5d9595688c8c98545fdd1c696d41c6aeaeb636737e84ed2f5c00eda6003546040516108619190610c2a565b60405180910390a260008054906101000a900473ffffffffffffffffffffffffffffffffffffffff1673ffffffffffffffffffffffffffffffffffffffff166108fc6003549081150290604051600060405180830381858888f193505050501580156108d1573d6000803e3d6000fd5b50565b6000813590506108e381610d23565b92915050565b6000602082840312156108fb57600080fd5b6000610909848285016108d4565b91505092915050565b61091b81610cac565b82525050565b61092a81610cbe565b82525050565b600061093d601e83610c45565b91507f546865726520697320616c7265616479206120686967686572206269642e00006000830152602082019050919050565b600061097d602583610c45565b91507f42696420616d6f756e74206d7573742062652067726561746572207468616e2060008301527f7a65726f2e0000000000000000000000000000000000000000000000000000006020830152604082019050919050565b60006109e3601683610c45565b91507f41756374696f6e20616c726561647920656e6465642e000000000000000000006000830152602082019050919050565b6000610a23601683610c45565b91507f41756374696f6e206e6f742079657420656e6465642e000000000000000000006000830152602082019050919050565b6000610a63602283610c45565b91507f4e6f2066756e647320617661696c61626c6520666f722077697468647261776160008301527f6c2e0000000000000000000000000000000000000000000000000000000000006020830152604082019050919050565b6000610ac9601883610c45565b91507f41756374696f6e20616c726561647920657870697265642e00000000000000006000830152602082019050919050565b610b0581610cea565b82525050565b6000602082019050610b206000830184610912565b92915050565b6000604082019050610b3b6000830185610912565b610b486020830184610afc565b9392505050565b6000602082019050610b646000830184610921565b92915050565b60006020820190508181036000830152610b8381610930565b9050919050565b60006020820190508181036000830152610ba381610970565b9050919050565b60006020820190508181036000830152610bc3816109d6565b9050919050565b60006020820190508181036000830152610be381610a16565b9050919050565b60006020820190508181036000830152610c0381610a56565b9050919050565b60006020820190508181036000830152610c2381610abc565b9050919050565b6000602082019050610c3f6000830184610afc565b92915050565b600082825260208201905092915050565b6000610c6182610cea565b9150610c6c83610cea565b9250827fffffffffffffffffffffffffffffffffffffffffffffffffffffffffffffffff03821115610ca157610ca0610cf4565b5b828201905092915050565b6000610cb782610cca565b9050919050565b60008115159050919050565b600073ffffffffffffffffffffffffffffffffffffffff82169050919050565b6000819050919050565b7f4e487b7100000000000000000000000000000000000000000000000000000000600052601160045260246000fd5b610d2c81610cac565b8114610d3757600080fd5b5056fea264697066735822122056b478e287073db1c697143f00bcd56591d08e0b406ed4827d713993617ffdd864736f6c63430008000033",
  "linkReferences": {},
  "deployedLinkReferences": {}
}